{
	"contracts/ExampleMappingStruct.sol": {
		"MappingStructExample": {
			"abi": [
				{
					"inputs": [
						{
							"internalType": "address",
							"name": "",
							"type": "address"
						}
					],
					"name": "balances",
					"outputs": [
						{
							"internalType": "uint256",
							"name": "totalBalance",
							"type": "uint256"
						},
						{
							"internalType": "uint256",
							"name": "numDeposits",
							"type": "uint256"
						},
						{
							"internalType": "uint256",
							"name": "numWithdrawals",
							"type": "uint256"
						}
					],
					"stateMutability": "view",
					"type": "function"
				},
				{
					"inputs": [],
					"name": "depositMoney",
					"outputs": [],
					"stateMutability": "payable",
					"type": "function"
				},
				{
					"inputs": [
						{
							"internalType": "address",
							"name": "_from",
							"type": "address"
						},
						{
							"internalType": "uint256",
							"name": "_numDeposit",
							"type": "uint256"
						}
					],
					"name": "getDeposit",
					"outputs": [
						{
							"components": [
								{
									"internalType": "uint256",
									"name": "amount",
									"type": "uint256"
								},
								{
									"internalType": "uint256",
									"name": "timestamp",
									"type": "uint256"
								}
							],
							"internalType": "struct MappingStructExample.Transaction",
							"name": "",
							"type": "tuple"
						}
					],
					"stateMutability": "view",
					"type": "function"
				},
				{
					"inputs": [
						{
							"internalType": "address payable",
							"name": "_to",
							"type": "address"
						},
						{
							"internalType": "uint256",
							"name": "_amount",
							"type": "uint256"
						}
					],
					"name": "withdrawMoney",
					"outputs": [],
					"stateMutability": "nonpayable",
					"type": "function"
				}
			],
			"devdoc": {
				"kind": "dev",
				"methods": {},
				"version": 1
			},
			"evm": {
				"assembly": "    /* \"contracts/ExampleMappingStruct.sol\":60:1211  contract MappingStructExample{... */\n  mstore(0x40, 0x80)\n  callvalue\n  dup1\n  iszero\n  tag_1\n  jumpi\n  0x00\n  dup1\n  revert\ntag_1:\n  pop\n  dataSize(sub_0)\n  dup1\n  dataOffset(sub_0)\n  0x00\n  codecopy\n  0x00\n  return\nstop\n\nsub_0: assembly {\n        /* \"contracts/ExampleMappingStruct.sol\":60:1211  contract MappingStructExample{... */\n      mstore(0x40, 0x80)\n      jumpi(tag_1, lt(calldatasize, 0x04))\n      shr(0xe0, calldataload(0x00))\n      dup1\n      0x16c05aa2\n      eq\n      tag_2\n      jumpi\n      dup1\n      0x2726b506\n      eq\n      tag_3\n      jumpi\n      dup1\n      0x27e235e3\n      eq\n      tag_4\n      jumpi\n      dup1\n      0xf274c897\n      eq\n      tag_5\n      jumpi\n    tag_1:\n      0x00\n      dup1\n      revert\n        /* \"contracts/ExampleMappingStruct.sol\":548:836  function depositMoney() public payable {... */\n    tag_2:\n      tag_6\n      tag_7\n      jump\t// in\n    tag_6:\n      stop\n        /* \"contracts/ExampleMappingStruct.sol\":396:544  function getDeposit(address _from,uint _numDeposit) public view  returns (Transaction memory){... */\n    tag_3:\n      callvalue\n      dup1\n      iszero\n      tag_8\n      jumpi\n      0x00\n      dup1\n      revert\n    tag_8:\n      pop\n      tag_9\n      0x04\n      dup1\n      calldatasize\n      sub\n      dup2\n      add\n      swap1\n      tag_10\n      swap2\n      swap1\n      tag_11\n      jump\t// in\n    tag_10:\n      tag_12\n      jump\t// in\n    tag_9:\n      mload(0x40)\n      tag_13\n      swap2\n      swap1\n      tag_14\n      jump\t// in\n    tag_13:\n      mload(0x40)\n      dup1\n      swap2\n      sub\n      swap1\n      return\n        /* \"contracts/ExampleMappingStruct.sol\":347:389  mapping(address=>Balance)  public balances */\n    tag_4:\n      callvalue\n      dup1\n      iszero\n      tag_15\n      jumpi\n      0x00\n      dup1\n      revert\n    tag_15:\n      pop\n      tag_16\n      0x04\n      dup1\n      calldatasize\n      sub\n      dup2\n      add\n      swap1\n      tag_17\n      swap2\n      swap1\n      tag_18\n      jump\t// in\n    tag_17:\n      tag_19\n      jump\t// in\n    tag_16:\n      mload(0x40)\n      tag_20\n      swap4\n      swap3\n      swap2\n      swap1\n      tag_21\n      jump\t// in\n    tag_20:\n      mload(0x40)\n      dup1\n      swap2\n      sub\n      swap1\n      return\n        /* \"contracts/ExampleMappingStruct.sol\":840:1198  function withdrawMoney( address payable _to, uint _amount) public {... */\n    tag_5:\n      callvalue\n      dup1\n      iszero\n      tag_22\n      jumpi\n      0x00\n      dup1\n      revert\n    tag_22:\n      pop\n      tag_23\n      0x04\n      dup1\n      calldatasize\n      sub\n      dup2\n      add\n      swap1\n      tag_24\n      swap2\n      swap1\n      tag_25\n      jump\t// in\n    tag_24:\n      tag_26\n      jump\t// in\n    tag_23:\n      stop\n        /* \"contracts/ExampleMappingStruct.sol\":548:836  function depositMoney() public payable {... */\n    tag_7:\n        /* \"contracts/ExampleMappingStruct.sol\":629:638  msg.value */\n      callvalue\n        /* \"contracts/ExampleMappingStruct.sol\":594:602  balances */\n      0x00\n        /* \"contracts/ExampleMappingStruct.sol\":594:614  balances[msg.sender] */\n      dup1\n        /* \"contracts/ExampleMappingStruct.sol\":603:613  msg.sender */\n      caller\n        /* \"contracts/ExampleMappingStruct.sol\":594:614  balances[msg.sender] */\n      0xffffffffffffffffffffffffffffffffffffffff\n      and\n      0xffffffffffffffffffffffffffffffffffffffff\n      and\n      dup2\n      mstore\n      0x20\n      add\n      swap1\n      dup2\n      mstore\n      0x20\n      add\n      0x00\n      keccak256\n        /* \"contracts/ExampleMappingStruct.sol\":594:627  balances[msg.sender].totalBalance */\n      0x00\n      add\n      0x00\n        /* \"contracts/ExampleMappingStruct.sol\":594:638  balances[msg.sender].totalBalance+=msg.value */\n      dup3\n      dup3\n      sload\n      tag_28\n      swap2\n      swap1\n      tag_29\n      jump\t// in\n    tag_28:\n      swap3\n      pop\n      pop\n      dup2\n      swap1\n      sstore\n      pop\n        /* \"contracts/ExampleMappingStruct.sol\":645:671  Transaction memory deposit */\n      0x00\n        /* \"contracts/ExampleMappingStruct.sol\":674:713  Transaction(msg.value, block.timestamp) */\n      mload(0x40)\n      dup1\n      0x40\n      add\n      0x40\n      mstore\n      dup1\n        /* \"contracts/ExampleMappingStruct.sol\":686:695  msg.value */\n      callvalue\n        /* \"contracts/ExampleMappingStruct.sol\":674:713  Transaction(msg.value, block.timestamp) */\n      dup2\n      mstore\n      0x20\n      add\n        /* \"contracts/ExampleMappingStruct.sol\":697:712  block.timestamp */\n      timestamp\n        /* \"contracts/ExampleMappingStruct.sol\":674:713  Transaction(msg.value, block.timestamp) */\n      dup2\n      mstore\n      pop\n        /* \"contracts/ExampleMappingStruct.sol\":645:713  Transaction memory deposit = Transaction(msg.value, block.timestamp) */\n      swap1\n      pop\n        /* \"contracts/ExampleMappingStruct.sol\":784:791  deposit */\n      dup1\n        /* \"contracts/ExampleMappingStruct.sol\":720:728  balances */\n      0x00\n        /* \"contracts/ExampleMappingStruct.sol\":720:740  balances[msg.sender] */\n      dup1\n        /* \"contracts/ExampleMappingStruct.sol\":729:739  msg.sender */\n      caller\n        /* \"contracts/ExampleMappingStruct.sol\":720:740  balances[msg.sender] */\n      0xffffffffffffffffffffffffffffffffffffffff\n      and\n      0xffffffffffffffffffffffffffffffffffffffff\n      and\n      dup2\n      mstore\n      0x20\n      add\n      swap1\n      dup2\n      mstore\n      0x20\n      add\n      0x00\n      keccak256\n        /* \"contracts/ExampleMappingStruct.sol\":720:749  balances[msg.sender].deposits */\n      0x02\n      add\n        /* \"contracts/ExampleMappingStruct.sol\":720:783  balances[msg.sender].deposits[balances[msg.sender].numDeposits] */\n      0x00\n        /* \"contracts/ExampleMappingStruct.sol\":750:758  balances */\n      dup1\n        /* \"contracts/ExampleMappingStruct.sol\":750:770  balances[msg.sender] */\n      0x00\n        /* \"contracts/ExampleMappingStruct.sol\":759:769  msg.sender */\n      caller\n        /* \"contracts/ExampleMappingStruct.sol\":750:770  balances[msg.sender] */\n      0xffffffffffffffffffffffffffffffffffffffff\n      and\n      0xffffffffffffffffffffffffffffffffffffffff\n      and\n      dup2\n      mstore\n      0x20\n      add\n      swap1\n      dup2\n      mstore\n      0x20\n      add\n      0x00\n      keccak256\n        /* \"contracts/ExampleMappingStruct.sol\":750:782  balances[msg.sender].numDeposits */\n      0x01\n      add\n      sload\n        /* \"contracts/ExampleMappingStruct.sol\":720:783  balances[msg.sender].deposits[balances[msg.sender].numDeposits] */\n      dup2\n      mstore\n      0x20\n      add\n      swap1\n      dup2\n      mstore\n      0x20\n      add\n      0x00\n      keccak256\n        /* \"contracts/ExampleMappingStruct.sol\":720:791  balances[msg.sender].deposits[balances[msg.sender].numDeposits]=deposit */\n      0x00\n      dup3\n      add\n      mload\n      dup2\n      0x00\n      add\n      sstore\n      0x20\n      dup3\n      add\n      mload\n      dup2\n      0x01\n      add\n      sstore\n      swap1\n      pop\n      pop\n        /* \"contracts/ExampleMappingStruct.sol\":798:806  balances */\n      0x00\n        /* \"contracts/ExampleMappingStruct.sol\":798:818  balances[msg.sender] */\n      dup1\n        /* \"contracts/ExampleMappingStruct.sol\":807:817  msg.sender */\n      caller\n        /* \"contracts/ExampleMappingStruct.sol\":798:818  balances[msg.sender] */\n      0xffffffffffffffffffffffffffffffffffffffff\n      and\n      0xffffffffffffffffffffffffffffffffffffffff\n      and\n      dup2\n      mstore\n      0x20\n      add\n      swap1\n      dup2\n      mstore\n      0x20\n      add\n      0x00\n      keccak256\n        /* \"contracts/ExampleMappingStruct.sol\":798:830  balances[msg.sender].numDeposits */\n      0x01\n      add\n      0x00\n        /* \"contracts/ExampleMappingStruct.sol\":798:832  balances[msg.sender].numDeposits++ */\n      dup2\n      sload\n      dup1\n      swap3\n      swap2\n      swap1\n      tag_30\n      swap1\n      tag_31\n      jump\t// in\n    tag_30:\n      swap2\n      swap1\n      pop\n      sstore\n      pop\n        /* \"contracts/ExampleMappingStruct.sol\":587:836  {... */\n      pop\n        /* \"contracts/ExampleMappingStruct.sol\":548:836  function depositMoney() public payable {... */\n      jump\t// out\n        /* \"contracts/ExampleMappingStruct.sol\":396:544  function getDeposit(address _from,uint _numDeposit) public view  returns (Transaction memory){... */\n    tag_12:\n        /* \"contracts/ExampleMappingStruct.sol\":470:488  Transaction memory */\n      tag_32\n      tag_33\n      jump\t// in\n    tag_32:\n        /* \"contracts/ExampleMappingStruct.sol\":503:511  balances */\n      0x00\n        /* \"contracts/ExampleMappingStruct.sol\":503:518  balances[_from] */\n      dup1\n        /* \"contracts/ExampleMappingStruct.sol\":512:517  _from */\n      dup5\n        /* \"contracts/ExampleMappingStruct.sol\":503:518  balances[_from] */\n      0xffffffffffffffffffffffffffffffffffffffff\n      and\n      0xffffffffffffffffffffffffffffffffffffffff\n      and\n      dup2\n      mstore\n      0x20\n      add\n      swap1\n      dup2\n      mstore\n      0x20\n      add\n      0x00\n      keccak256\n        /* \"contracts/ExampleMappingStruct.sol\":503:527  balances[_from].deposits */\n      0x02\n      add\n        /* \"contracts/ExampleMappingStruct.sol\":503:540  balances[_from].deposits[_numDeposit] */\n      0x00\n        /* \"contracts/ExampleMappingStruct.sol\":528:539  _numDeposit */\n      dup4\n        /* \"contracts/ExampleMappingStruct.sol\":503:540  balances[_from].deposits[_numDeposit] */\n      dup2\n      mstore\n      0x20\n      add\n      swap1\n      dup2\n      mstore\n      0x20\n      add\n      0x00\n      keccak256\n        /* \"contracts/ExampleMappingStruct.sol\":496:540  return balances[_from].deposits[_numDeposit] */\n      mload(0x40)\n      dup1\n      0x40\n      add\n      0x40\n      mstore\n      swap1\n      dup2\n      0x00\n      dup3\n      add\n      sload\n      dup2\n      mstore\n      0x20\n      add\n      0x01\n      dup3\n      add\n      sload\n      dup2\n      mstore\n      pop\n      pop\n      swap1\n      pop\n        /* \"contracts/ExampleMappingStruct.sol\":396:544  function getDeposit(address _from,uint _numDeposit) public view  returns (Transaction memory){... */\n      swap3\n      swap2\n      pop\n      pop\n      jump\t// out\n        /* \"contracts/ExampleMappingStruct.sol\":347:389  mapping(address=>Balance)  public balances */\n    tag_19:\n      mstore(0x20, 0x00)\n      dup1\n      0x00\n      mstore\n      keccak256(0x00, 0x40)\n      0x00\n      swap2\n      pop\n      swap1\n      pop\n      dup1\n      0x00\n      add\n      sload\n      swap1\n      dup1\n      0x01\n      add\n      sload\n      swap1\n      dup1\n      0x03\n      add\n      sload\n      swap1\n      pop\n      dup4\n      jump\t// out\n        /* \"contracts/ExampleMappingStruct.sol\":840:1198  function withdrawMoney( address payable _to, uint _amount) public {... */\n    tag_26:\n        /* \"contracts/ExampleMappingStruct.sol\":949:956  _amount */\n      dup1\n        /* \"contracts/ExampleMappingStruct.sol\":913:921  balances */\n      0x00\n        /* \"contracts/ExampleMappingStruct.sol\":913:933  balances[msg.sender] */\n      dup1\n        /* \"contracts/ExampleMappingStruct.sol\":922:932  msg.sender */\n      caller\n        /* \"contracts/ExampleMappingStruct.sol\":913:933  balances[msg.sender] */\n      0xffffffffffffffffffffffffffffffffffffffff\n      and\n      0xffffffffffffffffffffffffffffffffffffffff\n      and\n      dup2\n      mstore\n      0x20\n      add\n      swap1\n      dup2\n      mstore\n      0x20\n      add\n      0x00\n      keccak256\n        /* \"contracts/ExampleMappingStruct.sol\":913:946  balances[msg.sender].totalBalance */\n      0x00\n      add\n      0x00\n        /* \"contracts/ExampleMappingStruct.sol\":913:956  balances[msg.sender].totalBalance -=_amount */\n      dup3\n      dup3\n      sload\n      tag_36\n      swap2\n      swap1\n      tag_37\n      jump\t// in\n    tag_36:\n      swap3\n      pop\n      pop\n      dup2\n      swap1\n      sstore\n      pop\n        /* \"contracts/ExampleMappingStruct.sol\":965:994  Transaction memory withdrawal */\n      0x00\n        /* \"contracts/ExampleMappingStruct.sol\":997:1033  Transaction(_amount,block.timestamp) */\n      mload(0x40)\n      dup1\n      0x40\n      add\n      0x40\n      mstore\n      dup1\n        /* \"contracts/ExampleMappingStruct.sol\":1009:1016  _amount */\n      dup4\n        /* \"contracts/ExampleMappingStruct.sol\":997:1033  Transaction(_amount,block.timestamp) */\n      dup2\n      mstore\n      0x20\n      add\n        /* \"contracts/ExampleMappingStruct.sol\":1017:1032  block.timestamp */\n      timestamp\n        /* \"contracts/ExampleMappingStruct.sol\":997:1033  Transaction(_amount,block.timestamp) */\n      dup2\n      mstore\n      pop\n        /* \"contracts/ExampleMappingStruct.sol\":965:1033  Transaction memory withdrawal = Transaction(_amount,block.timestamp) */\n      swap1\n      pop\n        /* \"contracts/ExampleMappingStruct.sol\":1110:1120  withdrawal */\n      dup1\n        /* \"contracts/ExampleMappingStruct.sol\":1040:1048  balances */\n      0x00\n        /* \"contracts/ExampleMappingStruct.sol\":1040:1060  balances[msg.sender] */\n      dup1\n        /* \"contracts/ExampleMappingStruct.sol\":1049:1059  msg.sender */\n      caller\n        /* \"contracts/ExampleMappingStruct.sol\":1040:1060  balances[msg.sender] */\n      0xffffffffffffffffffffffffffffffffffffffff\n      and\n      0xffffffffffffffffffffffffffffffffffffffff\n      and\n      dup2\n      mstore\n      0x20\n      add\n      swap1\n      dup2\n      mstore\n      0x20\n      add\n      0x00\n      keccak256\n        /* \"contracts/ExampleMappingStruct.sol\":1040:1072  balances[msg.sender].wihtdrawals */\n      0x04\n      add\n        /* \"contracts/ExampleMappingStruct.sol\":1040:1109  balances[msg.sender].wihtdrawals[balances[msg.sender].numWithdrawals] */\n      0x00\n        /* \"contracts/ExampleMappingStruct.sol\":1073:1081  balances */\n      dup1\n        /* \"contracts/ExampleMappingStruct.sol\":1073:1093  balances[msg.sender] */\n      0x00\n        /* \"contracts/ExampleMappingStruct.sol\":1082:1092  msg.sender */\n      caller\n        /* \"contracts/ExampleMappingStruct.sol\":1073:1093  balances[msg.sender] */\n      0xffffffffffffffffffffffffffffffffffffffff\n      and\n      0xffffffffffffffffffffffffffffffffffffffff\n      and\n      dup2\n      mstore\n      0x20\n      add\n      swap1\n      dup2\n      mstore\n      0x20\n      add\n      0x00\n      keccak256\n        /* \"contracts/ExampleMappingStruct.sol\":1073:1108  balances[msg.sender].numWithdrawals */\n      0x03\n      add\n      sload\n        /* \"contracts/ExampleMappingStruct.sol\":1040:1109  balances[msg.sender].wihtdrawals[balances[msg.sender].numWithdrawals] */\n      dup2\n      mstore\n      0x20\n      add\n      swap1\n      dup2\n      mstore\n      0x20\n      add\n      0x00\n      keccak256\n        /* \"contracts/ExampleMappingStruct.sol\":1040:1120  balances[msg.sender].wihtdrawals[balances[msg.sender].numWithdrawals]=withdrawal */\n      0x00\n      dup3\n      add\n      mload\n      dup2\n      0x00\n      add\n      sstore\n      0x20\n      dup3\n      add\n      mload\n      dup2\n      0x01\n      add\n      sstore\n      swap1\n      pop\n      pop\n        /* \"contracts/ExampleMappingStruct.sol\":1123:1131  balances */\n      0x00\n        /* \"contracts/ExampleMappingStruct.sol\":1123:1143  balances[msg.sender] */\n      dup1\n        /* \"contracts/ExampleMappingStruct.sol\":1132:1142  msg.sender */\n      caller\n        /* \"contracts/ExampleMappingStruct.sol\":1123:1143  balances[msg.sender] */\n      0xffffffffffffffffffffffffffffffffffffffff\n      and\n      0xffffffffffffffffffffffffffffffffffffffff\n      and\n      dup2\n      mstore\n      0x20\n      add\n      swap1\n      dup2\n      mstore\n      0x20\n      add\n      0x00\n      keccak256\n        /* \"contracts/ExampleMappingStruct.sol\":1123:1158  balances[msg.sender].numWithdrawals */\n      0x03\n      add\n      0x00\n        /* \"contracts/ExampleMappingStruct.sol\":1123:1160  balances[msg.sender].numWithdrawals++ */\n      dup2\n      sload\n      dup1\n      swap3\n      swap2\n      swap1\n      tag_38\n      swap1\n      tag_31\n      jump\t// in\n    tag_38:\n      swap2\n      swap1\n      pop\n      sstore\n      pop\n        /* \"contracts/ExampleMappingStruct.sol\":1173:1176  _to */\n      dup3\n        /* \"contracts/ExampleMappingStruct.sol\":1173:1185  _to.transfer */\n      0xffffffffffffffffffffffffffffffffffffffff\n      and\n        /* \"contracts/ExampleMappingStruct.sol\":1173:1194  _to.transfer(_amount) */\n      0x08fc\n        /* \"contracts/ExampleMappingStruct.sol\":1186:1193  _amount */\n      dup4\n        /* \"contracts/ExampleMappingStruct.sol\":1173:1194  _to.transfer(_amount) */\n      swap1\n      dup2\n      iszero\n      mul\n      swap1\n      mload(0x40)\n      0x00\n      mload(0x40)\n      dup1\n      dup4\n      sub\n      dup2\n      dup6\n      dup9\n      dup9\n      call\n      swap4\n      pop\n      pop\n      pop\n      pop\n      iszero\n      dup1\n      iszero\n      tag_40\n      jumpi\n      returndatasize\n      0x00\n      dup1\n      returndatacopy\n      revert(0x00, returndatasize)\n    tag_40:\n      pop\n        /* \"contracts/ExampleMappingStruct.sol\":906:1198  {... */\n      pop\n        /* \"contracts/ExampleMappingStruct.sol\":840:1198  function withdrawMoney( address payable _to, uint _amount) public {... */\n      pop\n      pop\n      jump\t// out\n    tag_33:\n      mload(0x40)\n      dup1\n      0x40\n      add\n      0x40\n      mstore\n      dup1\n      0x00\n      dup2\n      mstore\n      0x20\n      add\n      0x00\n      dup2\n      mstore\n      pop\n      swap1\n      jump\t// out\n        /* \"#utility.yul\":88:205   */\n    tag_42:\n        /* \"#utility.yul\":197:198   */\n      0x00\n        /* \"#utility.yul\":194:195   */\n      dup1\n        /* \"#utility.yul\":187:199   */\n      revert\n        /* \"#utility.yul\":334:460   */\n    tag_44:\n        /* \"#utility.yul\":371:378   */\n      0x00\n        /* \"#utility.yul\":411:453   */\n      0xffffffffffffffffffffffffffffffffffffffff\n        /* \"#utility.yul\":404:409   */\n      dup3\n        /* \"#utility.yul\":400:454   */\n      and\n        /* \"#utility.yul\":389:454   */\n      swap1\n      pop\n        /* \"#utility.yul\":334:460   */\n      swap2\n      swap1\n      pop\n      jump\t// out\n        /* \"#utility.yul\":466:562   */\n    tag_45:\n        /* \"#utility.yul\":503:510   */\n      0x00\n        /* \"#utility.yul\":532:556   */\n      tag_64\n        /* \"#utility.yul\":550:555   */\n      dup3\n        /* \"#utility.yul\":532:556   */\n      tag_44\n      jump\t// in\n    tag_64:\n        /* \"#utility.yul\":521:556   */\n      swap1\n      pop\n        /* \"#utility.yul\":466:562   */\n      swap2\n      swap1\n      pop\n      jump\t// out\n        /* \"#utility.yul\":568:690   */\n    tag_46:\n        /* \"#utility.yul\":641:665   */\n      tag_66\n        /* \"#utility.yul\":659:664   */\n      dup2\n        /* \"#utility.yul\":641:665   */\n      tag_45\n      jump\t// in\n    tag_66:\n        /* \"#utility.yul\":634:639   */\n      dup2\n        /* \"#utility.yul\":631:666   */\n      eq\n        /* \"#utility.yul\":621:684   */\n      tag_67\n      jumpi\n        /* \"#utility.yul\":680:681   */\n      0x00\n        /* \"#utility.yul\":677:678   */\n      dup1\n        /* \"#utility.yul\":670:682   */\n      revert\n        /* \"#utility.yul\":621:684   */\n    tag_67:\n        /* \"#utility.yul\":568:690   */\n      pop\n      jump\t// out\n        /* \"#utility.yul\":696:835   */\n    tag_47:\n        /* \"#utility.yul\":742:747   */\n      0x00\n        /* \"#utility.yul\":780:786   */\n      dup2\n        /* \"#utility.yul\":767:787   */\n      calldataload\n        /* \"#utility.yul\":758:787   */\n      swap1\n      pop\n        /* \"#utility.yul\":796:829   */\n      tag_69\n        /* \"#utility.yul\":823:828   */\n      dup2\n        /* \"#utility.yul\":796:829   */\n      tag_46\n      jump\t// in\n    tag_69:\n        /* \"#utility.yul\":696:835   */\n      swap3\n      swap2\n      pop\n      pop\n      jump\t// out\n        /* \"#utility.yul\":841:918   */\n    tag_48:\n        /* \"#utility.yul\":878:885   */\n      0x00\n        /* \"#utility.yul\":907:912   */\n      dup2\n        /* \"#utility.yul\":896:912   */\n      swap1\n      pop\n        /* \"#utility.yul\":841:918   */\n      swap2\n      swap1\n      pop\n      jump\t// out\n        /* \"#utility.yul\":924:1046   */\n    tag_49:\n        /* \"#utility.yul\":997:1021   */\n      tag_72\n        /* \"#utility.yul\":1015:1020   */\n      dup2\n        /* \"#utility.yul\":997:1021   */\n      tag_48\n      jump\t// in\n    tag_72:\n        /* \"#utility.yul\":990:995   */\n      dup2\n        /* \"#utility.yul\":987:1022   */\n      eq\n        /* \"#utility.yul\":977:1040   */\n      tag_73\n      jumpi\n        /* \"#utility.yul\":1036:1037   */\n      0x00\n        /* \"#utility.yul\":1033:1034   */\n      dup1\n        /* \"#utility.yul\":1026:1038   */\n      revert\n        /* \"#utility.yul\":977:1040   */\n    tag_73:\n        /* \"#utility.yul\":924:1046   */\n      pop\n      jump\t// out\n        /* \"#utility.yul\":1052:1191   */\n    tag_50:\n        /* \"#utility.yul\":1098:1103   */\n      0x00\n        /* \"#utility.yul\":1136:1142   */\n      dup2\n        /* \"#utility.yul\":1123:1143   */\n      calldataload\n        /* \"#utility.yul\":1114:1143   */\n      swap1\n      pop\n        /* \"#utility.yul\":1152:1185   */\n      tag_75\n        /* \"#utility.yul\":1179:1184   */\n      dup2\n        /* \"#utility.yul\":1152:1185   */\n      tag_49\n      jump\t// in\n    tag_75:\n        /* \"#utility.yul\":1052:1191   */\n      swap3\n      swap2\n      pop\n      pop\n      jump\t// out\n        /* \"#utility.yul\":1197:1671   */\n    tag_11:\n        /* \"#utility.yul\":1265:1271   */\n      0x00\n        /* \"#utility.yul\":1273:1279   */\n      dup1\n        /* \"#utility.yul\":1322:1324   */\n      0x40\n        /* \"#utility.yul\":1310:1319   */\n      dup4\n        /* \"#utility.yul\":1301:1308   */\n      dup6\n        /* \"#utility.yul\":1297:1320   */\n      sub\n        /* \"#utility.yul\":1293:1325   */\n      slt\n        /* \"#utility.yul\":1290:1409   */\n      iszero\n      tag_77\n      jumpi\n        /* \"#utility.yul\":1328:1407   */\n      tag_78\n      tag_42\n      jump\t// in\n    tag_78:\n        /* \"#utility.yul\":1290:1409   */\n    tag_77:\n        /* \"#utility.yul\":1448:1449   */\n      0x00\n        /* \"#utility.yul\":1473:1526   */\n      tag_79\n        /* \"#utility.yul\":1518:1525   */\n      dup6\n        /* \"#utility.yul\":1509:1515   */\n      dup3\n        /* \"#utility.yul\":1498:1507   */\n      dup7\n        /* \"#utility.yul\":1494:1516   */\n      add\n        /* \"#utility.yul\":1473:1526   */\n      tag_47\n      jump\t// in\n    tag_79:\n        /* \"#utility.yul\":1463:1526   */\n      swap3\n      pop\n        /* \"#utility.yul\":1419:1536   */\n      pop\n        /* \"#utility.yul\":1575:1577   */\n      0x20\n        /* \"#utility.yul\":1601:1654   */\n      tag_80\n        /* \"#utility.yul\":1646:1653   */\n      dup6\n        /* \"#utility.yul\":1637:1643   */\n      dup3\n        /* \"#utility.yul\":1626:1635   */\n      dup7\n        /* \"#utility.yul\":1622:1644   */\n      add\n        /* \"#utility.yul\":1601:1654   */\n      tag_50\n      jump\t// in\n    tag_80:\n        /* \"#utility.yul\":1591:1654   */\n      swap2\n      pop\n        /* \"#utility.yul\":1546:1664   */\n      pop\n        /* \"#utility.yul\":1197:1671   */\n      swap3\n      pop\n      swap3\n      swap1\n      pop\n      jump\t// out\n        /* \"#utility.yul\":1677:1785   */\n    tag_51:\n        /* \"#utility.yul\":1754:1778   */\n      tag_82\n        /* \"#utility.yul\":1772:1777   */\n      dup2\n        /* \"#utility.yul\":1754:1778   */\n      tag_48\n      jump\t// in\n    tag_82:\n        /* \"#utility.yul\":1749:1752   */\n      dup3\n        /* \"#utility.yul\":1742:1779   */\n      mstore\n        /* \"#utility.yul\":1677:1785   */\n      pop\n      pop\n      jump\t// out\n        /* \"#utility.yul\":1881:2397   */\n    tag_52:\n        /* \"#utility.yul\":2030:2034   */\n      0x40\n        /* \"#utility.yul\":2025:2028   */\n      dup3\n        /* \"#utility.yul\":2021:2035   */\n      add\n        /* \"#utility.yul\":2119:2123   */\n      0x00\n        /* \"#utility.yul\":2112:2117   */\n      dup3\n        /* \"#utility.yul\":2108:2124   */\n      add\n        /* \"#utility.yul\":2102:2125   */\n      mload\n        /* \"#utility.yul\":2138:2201   */\n      tag_84\n        /* \"#utility.yul\":2195:2199   */\n      0x00\n        /* \"#utility.yul\":2190:2193   */\n      dup6\n        /* \"#utility.yul\":2186:2200   */\n      add\n        /* \"#utility.yul\":2172:2184   */\n      dup3\n        /* \"#utility.yul\":2138:2201   */\n      tag_51\n      jump\t// in\n    tag_84:\n        /* \"#utility.yul\":2045:2211   */\n      pop\n        /* \"#utility.yul\":2298:2302   */\n      0x20\n        /* \"#utility.yul\":2291:2296   */\n      dup3\n        /* \"#utility.yul\":2287:2303   */\n      add\n        /* \"#utility.yul\":2281:2304   */\n      mload\n        /* \"#utility.yul\":2317:2380   */\n      tag_85\n        /* \"#utility.yul\":2374:2378   */\n      0x20\n        /* \"#utility.yul\":2369:2372   */\n      dup6\n        /* \"#utility.yul\":2365:2379   */\n      add\n        /* \"#utility.yul\":2351:2363   */\n      dup3\n        /* \"#utility.yul\":2317:2380   */\n      tag_51\n      jump\t// in\n    tag_85:\n        /* \"#utility.yul\":2221:2390   */\n      pop\n        /* \"#utility.yul\":1999:2397   */\n      pop\n        /* \"#utility.yul\":1881:2397   */\n      pop\n      pop\n      jump\t// out\n        /* \"#utility.yul\":2403:2729   */\n    tag_14:\n        /* \"#utility.yul\":2548:2552   */\n      0x00\n        /* \"#utility.yul\":2586:2588   */\n      0x40\n        /* \"#utility.yul\":2575:2584   */\n      dup3\n        /* \"#utility.yul\":2571:2589   */\n      add\n        /* \"#utility.yul\":2563:2589   */\n      swap1\n      pop\n        /* \"#utility.yul\":2599:2722   */\n      tag_87\n        /* \"#utility.yul\":2719:2720   */\n      0x00\n        /* \"#utility.yul\":2708:2717   */\n      dup4\n        /* \"#utility.yul\":2704:2721   */\n      add\n        /* \"#utility.yul\":2695:2701   */\n      dup5\n        /* \"#utility.yul\":2599:2722   */\n      tag_52\n      jump\t// in\n    tag_87:\n        /* \"#utility.yul\":2403:2729   */\n      swap3\n      swap2\n      pop\n      pop\n      jump\t// out\n        /* \"#utility.yul\":2735:3064   */\n    tag_18:\n        /* \"#utility.yul\":2794:2800   */\n      0x00\n        /* \"#utility.yul\":2843:2845   */\n      0x20\n        /* \"#utility.yul\":2831:2840   */\n      dup3\n        /* \"#utility.yul\":2822:2829   */\n      dup5\n        /* \"#utility.yul\":2818:2841   */\n      sub\n        /* \"#utility.yul\":2814:2846   */\n      slt\n        /* \"#utility.yul\":2811:2930   */\n      iszero\n      tag_89\n      jumpi\n        /* \"#utility.yul\":2849:2928   */\n      tag_90\n      tag_42\n      jump\t// in\n    tag_90:\n        /* \"#utility.yul\":2811:2930   */\n    tag_89:\n        /* \"#utility.yul\":2969:2970   */\n      0x00\n        /* \"#utility.yul\":2994:3047   */\n      tag_91\n        /* \"#utility.yul\":3039:3046   */\n      dup5\n        /* \"#utility.yul\":3030:3036   */\n      dup3\n        /* \"#utility.yul\":3019:3028   */\n      dup6\n        /* \"#utility.yul\":3015:3037   */\n      add\n        /* \"#utility.yul\":2994:3047   */\n      tag_47\n      jump\t// in\n    tag_91:\n        /* \"#utility.yul\":2984:3047   */\n      swap2\n      pop\n        /* \"#utility.yul\":2940:3057   */\n      pop\n        /* \"#utility.yul\":2735:3064   */\n      swap3\n      swap2\n      pop\n      pop\n      jump\t// out\n        /* \"#utility.yul\":3070:3188   */\n    tag_53:\n        /* \"#utility.yul\":3157:3181   */\n      tag_93\n        /* \"#utility.yul\":3175:3180   */\n      dup2\n        /* \"#utility.yul\":3157:3181   */\n      tag_48\n      jump\t// in\n    tag_93:\n        /* \"#utility.yul\":3152:3155   */\n      dup3\n        /* \"#utility.yul\":3145:3182   */\n      mstore\n        /* \"#utility.yul\":3070:3188   */\n      pop\n      pop\n      jump\t// out\n        /* \"#utility.yul\":3194:3636   */\n    tag_21:\n        /* \"#utility.yul\":3343:3347   */\n      0x00\n        /* \"#utility.yul\":3381:3383   */\n      0x60\n        /* \"#utility.yul\":3370:3379   */\n      dup3\n        /* \"#utility.yul\":3366:3384   */\n      add\n        /* \"#utility.yul\":3358:3384   */\n      swap1\n      pop\n        /* \"#utility.yul\":3394:3465   */\n      tag_95\n        /* \"#utility.yul\":3462:3463   */\n      0x00\n        /* \"#utility.yul\":3451:3460   */\n      dup4\n        /* \"#utility.yul\":3447:3464   */\n      add\n        /* \"#utility.yul\":3438:3444   */\n      dup7\n        /* \"#utility.yul\":3394:3465   */\n      tag_53\n      jump\t// in\n    tag_95:\n        /* \"#utility.yul\":3475:3547   */\n      tag_96\n        /* \"#utility.yul\":3543:3545   */\n      0x20\n        /* \"#utility.yul\":3532:3541   */\n      dup4\n        /* \"#utility.yul\":3528:3546   */\n      add\n        /* \"#utility.yul\":3519:3525   */\n      dup6\n        /* \"#utility.yul\":3475:3547   */\n      tag_53\n      jump\t// in\n    tag_96:\n        /* \"#utility.yul\":3557:3629   */\n      tag_97\n        /* \"#utility.yul\":3625:3627   */\n      0x40\n        /* \"#utility.yul\":3614:3623   */\n      dup4\n        /* \"#utility.yul\":3610:3628   */\n      add\n        /* \"#utility.yul\":3601:3607   */\n      dup5\n        /* \"#utility.yul\":3557:3629   */\n      tag_53\n      jump\t// in\n    tag_97:\n        /* \"#utility.yul\":3194:3636   */\n      swap5\n      swap4\n      pop\n      pop\n      pop\n      pop\n      jump\t// out\n        /* \"#utility.yul\":3642:3746   */\n    tag_54:\n        /* \"#utility.yul\":3687:3694   */\n      0x00\n        /* \"#utility.yul\":3716:3740   */\n      tag_99\n        /* \"#utility.yul\":3734:3739   */\n      dup3\n        /* \"#utility.yul\":3716:3740   */\n      tag_44\n      jump\t// in\n    tag_99:\n        /* \"#utility.yul\":3705:3740   */\n      swap1\n      pop\n        /* \"#utility.yul\":3642:3746   */\n      swap2\n      swap1\n      pop\n      jump\t// out\n        /* \"#utility.yul\":3752:3890   */\n    tag_55:\n        /* \"#utility.yul\":3833:3865   */\n      tag_101\n        /* \"#utility.yul\":3859:3864   */\n      dup2\n        /* \"#utility.yul\":3833:3865   */\n      tag_54\n      jump\t// in\n    tag_101:\n        /* \"#utility.yul\":3826:3831   */\n      dup2\n        /* \"#utility.yul\":3823:3866   */\n      eq\n        /* \"#utility.yul\":3813:3884   */\n      tag_102\n      jumpi\n        /* \"#utility.yul\":3880:3881   */\n      0x00\n        /* \"#utility.yul\":3877:3878   */\n      dup1\n        /* \"#utility.yul\":3870:3882   */\n      revert\n        /* \"#utility.yul\":3813:3884   */\n    tag_102:\n        /* \"#utility.yul\":3752:3890   */\n      pop\n      jump\t// out\n        /* \"#utility.yul\":3896:4051   */\n    tag_56:\n        /* \"#utility.yul\":3950:3955   */\n      0x00\n        /* \"#utility.yul\":3988:3994   */\n      dup2\n        /* \"#utility.yul\":3975:3995   */\n      calldataload\n        /* \"#utility.yul\":3966:3995   */\n      swap1\n      pop\n        /* \"#utility.yul\":4004:4045   */\n      tag_104\n        /* \"#utility.yul\":4039:4044   */\n      dup2\n        /* \"#utility.yul\":4004:4045   */\n      tag_55\n      jump\t// in\n    tag_104:\n        /* \"#utility.yul\":3896:4051   */\n      swap3\n      swap2\n      pop\n      pop\n      jump\t// out\n        /* \"#utility.yul\":4057:4547   */\n    tag_25:\n        /* \"#utility.yul\":4133:4139   */\n      0x00\n        /* \"#utility.yul\":4141:4147   */\n      dup1\n        /* \"#utility.yul\":4190:4192   */\n      0x40\n        /* \"#utility.yul\":4178:4187   */\n      dup4\n        /* \"#utility.yul\":4169:4176   */\n      dup6\n        /* \"#utility.yul\":4165:4188   */\n      sub\n        /* \"#utility.yul\":4161:4193   */\n      slt\n        /* \"#utility.yul\":4158:4277   */\n      iszero\n      tag_106\n      jumpi\n        /* \"#utility.yul\":4196:4275   */\n      tag_107\n      tag_42\n      jump\t// in\n    tag_107:\n        /* \"#utility.yul\":4158:4277   */\n    tag_106:\n        /* \"#utility.yul\":4316:4317   */\n      0x00\n        /* \"#utility.yul\":4341:4402   */\n      tag_108\n        /* \"#utility.yul\":4394:4401   */\n      dup6\n        /* \"#utility.yul\":4385:4391   */\n      dup3\n        /* \"#utility.yul\":4374:4383   */\n      dup7\n        /* \"#utility.yul\":4370:4392   */\n      add\n        /* \"#utility.yul\":4341:4402   */\n      tag_56\n      jump\t// in\n    tag_108:\n        /* \"#utility.yul\":4331:4402   */\n      swap3\n      pop\n        /* \"#utility.yul\":4287:4412   */\n      pop\n        /* \"#utility.yul\":4451:4453   */\n      0x20\n        /* \"#utility.yul\":4477:4530   */\n      tag_109\n        /* \"#utility.yul\":4522:4529   */\n      dup6\n        /* \"#utility.yul\":4513:4519   */\n      dup3\n        /* \"#utility.yul\":4502:4511   */\n      dup7\n        /* \"#utility.yul\":4498:4520   */\n      add\n        /* \"#utility.yul\":4477:4530   */\n      tag_50\n      jump\t// in\n    tag_109:\n        /* \"#utility.yul\":4467:4530   */\n      swap2\n      pop\n        /* \"#utility.yul\":4422:4540   */\n      pop\n        /* \"#utility.yul\":4057:4547   */\n      swap3\n      pop\n      swap3\n      swap1\n      pop\n      jump\t// out\n        /* \"#utility.yul\":4553:4733   */\n    tag_57:\n        /* \"#utility.yul\":4601:4678   */\n      0x4e487b7100000000000000000000000000000000000000000000000000000000\n        /* \"#utility.yul\":4598:4599   */\n      0x00\n        /* \"#utility.yul\":4591:4679   */\n      mstore\n        /* \"#utility.yul\":4698:4702   */\n      0x11\n        /* \"#utility.yul\":4695:4696   */\n      0x04\n        /* \"#utility.yul\":4688:4703   */\n      mstore\n        /* \"#utility.yul\":4722:4726   */\n      0x24\n        /* \"#utility.yul\":4719:4720   */\n      0x00\n        /* \"#utility.yul\":4712:4727   */\n      revert\n        /* \"#utility.yul\":4739:5044   */\n    tag_29:\n        /* \"#utility.yul\":4779:4782   */\n      0x00\n        /* \"#utility.yul\":4798:4818   */\n      tag_112\n        /* \"#utility.yul\":4816:4817   */\n      dup3\n        /* \"#utility.yul\":4798:4818   */\n      tag_48\n      jump\t// in\n    tag_112:\n        /* \"#utility.yul\":4793:4818   */\n      swap2\n      pop\n        /* \"#utility.yul\":4832:4852   */\n      tag_113\n        /* \"#utility.yul\":4850:4851   */\n      dup4\n        /* \"#utility.yul\":4832:4852   */\n      tag_48\n      jump\t// in\n    tag_113:\n        /* \"#utility.yul\":4827:4852   */\n      swap3\n      pop\n        /* \"#utility.yul\":4986:4987   */\n      dup3\n        /* \"#utility.yul\":4918:4984   */\n      0xffffffffffffffffffffffffffffffffffffffffffffffffffffffffffffffff\n        /* \"#utility.yul\":4914:4988   */\n      sub\n        /* \"#utility.yul\":4911:4912   */\n      dup3\n        /* \"#utility.yul\":4908:4989   */\n      gt\n        /* \"#utility.yul\":4905:5012   */\n      iszero\n      tag_114\n      jumpi\n        /* \"#utility.yul\":4992:5010   */\n      tag_115\n      tag_57\n      jump\t// in\n    tag_115:\n        /* \"#utility.yul\":4905:5012   */\n    tag_114:\n        /* \"#utility.yul\":5036:5037   */\n      dup3\n        /* \"#utility.yul\":5033:5034   */\n      dup3\n        /* \"#utility.yul\":5029:5038   */\n      add\n        /* \"#utility.yul\":5022:5038   */\n      swap1\n      pop\n        /* \"#utility.yul\":4739:5044   */\n      swap3\n      swap2\n      pop\n      pop\n      jump\t// out\n        /* \"#utility.yul\":5050:5283   */\n    tag_31:\n        /* \"#utility.yul\":5089:5092   */\n      0x00\n        /* \"#utility.yul\":5112:5136   */\n      tag_117\n        /* \"#utility.yul\":5130:5135   */\n      dup3\n        /* \"#utility.yul\":5112:5136   */\n      tag_48\n      jump\t// in\n    tag_117:\n        /* \"#utility.yul\":5103:5136   */\n      swap2\n      pop\n        /* \"#utility.yul\":5158:5224   */\n      0xffffffffffffffffffffffffffffffffffffffffffffffffffffffffffffffff\n        /* \"#utility.yul\":5151:5156   */\n      dup3\n        /* \"#utility.yul\":5148:5225   */\n      sub\n        /* \"#utility.yul\":5145:5248   */\n      tag_118\n      jumpi\n        /* \"#utility.yul\":5228:5246   */\n      tag_119\n      tag_57\n      jump\t// in\n    tag_119:\n        /* \"#utility.yul\":5145:5248   */\n    tag_118:\n        /* \"#utility.yul\":5275:5276   */\n      0x01\n        /* \"#utility.yul\":5268:5273   */\n      dup3\n        /* \"#utility.yul\":5264:5277   */\n      add\n        /* \"#utility.yul\":5257:5277   */\n      swap1\n      pop\n        /* \"#utility.yul\":5050:5283   */\n      swap2\n      swap1\n      pop\n      jump\t// out\n        /* \"#utility.yul\":5289:5480   */\n    tag_37:\n        /* \"#utility.yul\":5329:5333   */\n      0x00\n        /* \"#utility.yul\":5349:5369   */\n      tag_121\n        /* \"#utility.yul\":5367:5368   */\n      dup3\n        /* \"#utility.yul\":5349:5369   */\n      tag_48\n      jump\t// in\n    tag_121:\n        /* \"#utility.yul\":5344:5369   */\n      swap2\n      pop\n        /* \"#utility.yul\":5383:5403   */\n      tag_122\n        /* \"#utility.yul\":5401:5402   */\n      dup4\n        /* \"#utility.yul\":5383:5403   */\n      tag_48\n      jump\t// in\n    tag_122:\n        /* \"#utility.yul\":5378:5403   */\n      swap3\n      pop\n        /* \"#utility.yul\":5422:5423   */\n      dup3\n        /* \"#utility.yul\":5419:5420   */\n      dup3\n        /* \"#utility.yul\":5416:5424   */\n      lt\n        /* \"#utility.yul\":5413:5447   */\n      iszero\n      tag_123\n      jumpi\n        /* \"#utility.yul\":5427:5445   */\n      tag_124\n      tag_57\n      jump\t// in\n    tag_124:\n        /* \"#utility.yul\":5413:5447   */\n    tag_123:\n        /* \"#utility.yul\":5472:5473   */\n      dup3\n        /* \"#utility.yul\":5469:5470   */\n      dup3\n        /* \"#utility.yul\":5465:5474   */\n      sub\n        /* \"#utility.yul\":5457:5474   */\n      swap1\n      pop\n        /* \"#utility.yul\":5289:5480   */\n      swap3\n      swap2\n      pop\n      pop\n      jump\t// out\n\n    auxdata: 0xa26469706673582212206430d08be33f4d3b2f9bfc3f16061aa11436fe566147f018877febf1a66c4ca264736f6c634300080f0033\n}\n",
				"bytecode": {
					"linkReferences": {},
					"object": "608060405234801561001057600080fd5b50610847806100206000396000f3fe60806040526004361061003f5760003560e01c806316c05aa2146100445780632726b5061461004e57806327e235e31461008b578063f274c897146100ca575b600080fd5b61004c6100f3565b005b34801561005a57600080fd5b5061007560048036038101906100709190610586565b610269565b6040516100829190610604565b60405180910390f35b34801561009757600080fd5b506100b260048036038101906100ad919061061f565b6102ea565b6040516100c19392919061065b565b60405180910390f35b3480156100d657600080fd5b506100f160048036038101906100ec91906106d0565b610314565b005b346000803373ffffffffffffffffffffffffffffffffffffffff1673ffffffffffffffffffffffffffffffffffffffff1681526020019081526020016000206000016000828254610144919061073f565b9250508190555060006040518060400160405280348152602001428152509050806000803373ffffffffffffffffffffffffffffffffffffffff1673ffffffffffffffffffffffffffffffffffffffff16815260200190815260200160002060020160008060003373ffffffffffffffffffffffffffffffffffffffff1673ffffffffffffffffffffffffffffffffffffffff16815260200190815260200160002060010154815260200190815260200160002060008201518160000155602082015181600101559050506000803373ffffffffffffffffffffffffffffffffffffffff1673ffffffffffffffffffffffffffffffffffffffff168152602001908152602001600020600101600081548092919061026190610795565b919050555050565b6102716104d3565b6000808473ffffffffffffffffffffffffffffffffffffffff1673ffffffffffffffffffffffffffffffffffffffff168152602001908152602001600020600201600083815260200190815260200160002060405180604001604052908160008201548152602001600182015481525050905092915050565b60006020528060005260406000206000915090508060000154908060010154908060030154905083565b806000803373ffffffffffffffffffffffffffffffffffffffff1673ffffffffffffffffffffffffffffffffffffffff168152602001908152602001600020600001600082825461036591906107dd565b9250508190555060006040518060400160405280838152602001428152509050806000803373ffffffffffffffffffffffffffffffffffffffff1673ffffffffffffffffffffffffffffffffffffffff16815260200190815260200160002060040160008060003373ffffffffffffffffffffffffffffffffffffffff1673ffffffffffffffffffffffffffffffffffffffff16815260200190815260200160002060030154815260200190815260200160002060008201518160000155602082015181600101559050506000803373ffffffffffffffffffffffffffffffffffffffff1673ffffffffffffffffffffffffffffffffffffffff168152602001908152602001600020600301600081548092919061048290610795565b91905055508273ffffffffffffffffffffffffffffffffffffffff166108fc839081150290604051600060405180830381858888f193505050501580156104cd573d6000803e3d6000fd5b50505050565b604051806040016040528060008152602001600081525090565b600080fd5b600073ffffffffffffffffffffffffffffffffffffffff82169050919050565b600061051d826104f2565b9050919050565b61052d81610512565b811461053857600080fd5b50565b60008135905061054a81610524565b92915050565b6000819050919050565b61056381610550565b811461056e57600080fd5b50565b6000813590506105808161055a565b92915050565b6000806040838503121561059d5761059c6104ed565b5b60006105ab8582860161053b565b92505060206105bc85828601610571565b9150509250929050565b6105cf81610550565b82525050565b6040820160008201516105eb60008501826105c6565b5060208201516105fe60208501826105c6565b50505050565b600060408201905061061960008301846105d5565b92915050565b600060208284031215610635576106346104ed565b5b60006106438482850161053b565b91505092915050565b61065581610550565b82525050565b6000606082019050610670600083018661064c565b61067d602083018561064c565b61068a604083018461064c565b949350505050565b600061069d826104f2565b9050919050565b6106ad81610692565b81146106b857600080fd5b50565b6000813590506106ca816106a4565b92915050565b600080604083850312156106e7576106e66104ed565b5b60006106f5858286016106bb565b925050602061070685828601610571565b9150509250929050565b7f4e487b7100000000000000000000000000000000000000000000000000000000600052601160045260246000fd5b600061074a82610550565b915061075583610550565b9250827fffffffffffffffffffffffffffffffffffffffffffffffffffffffffffffffff0382111561078a57610789610710565b5b828201905092915050565b60006107a082610550565b91507fffffffffffffffffffffffffffffffffffffffffffffffffffffffffffffffff82036107d2576107d1610710565b5b600182019050919050565b60006107e882610550565b91506107f383610550565b92508282101561080657610805610710565b5b82820390509291505056fea26469706673582212206430d08be33f4d3b2f9bfc3f16061aa11436fe566147f018877febf1a66c4ca264736f6c634300080f0033",
					"opcodes": "PUSH1 0x80 PUSH1 0x40 MSTORE CALLVALUE DUP1 ISZERO PUSH2 0x10 JUMPI PUSH1 0x0 DUP1 REVERT JUMPDEST POP PUSH2 0x847 DUP1 PUSH2 0x20 PUSH1 0x0 CODECOPY PUSH1 0x0 RETURN INVALID PUSH1 0x80 PUSH1 0x40 MSTORE PUSH1 0x4 CALLDATASIZE LT PUSH2 0x3F JUMPI PUSH1 0x0 CALLDATALOAD PUSH1 0xE0 SHR DUP1 PUSH4 0x16C05AA2 EQ PUSH2 0x44 JUMPI DUP1 PUSH4 0x2726B506 EQ PUSH2 0x4E JUMPI DUP1 PUSH4 0x27E235E3 EQ PUSH2 0x8B JUMPI DUP1 PUSH4 0xF274C897 EQ PUSH2 0xCA JUMPI JUMPDEST PUSH1 0x0 DUP1 REVERT JUMPDEST PUSH2 0x4C PUSH2 0xF3 JUMP JUMPDEST STOP JUMPDEST CALLVALUE DUP1 ISZERO PUSH2 0x5A JUMPI PUSH1 0x0 DUP1 REVERT JUMPDEST POP PUSH2 0x75 PUSH1 0x4 DUP1 CALLDATASIZE SUB DUP2 ADD SWAP1 PUSH2 0x70 SWAP2 SWAP1 PUSH2 0x586 JUMP JUMPDEST PUSH2 0x269 JUMP JUMPDEST PUSH1 0x40 MLOAD PUSH2 0x82 SWAP2 SWAP1 PUSH2 0x604 JUMP JUMPDEST PUSH1 0x40 MLOAD DUP1 SWAP2 SUB SWAP1 RETURN JUMPDEST CALLVALUE DUP1 ISZERO PUSH2 0x97 JUMPI PUSH1 0x0 DUP1 REVERT JUMPDEST POP PUSH2 0xB2 PUSH1 0x4 DUP1 CALLDATASIZE SUB DUP2 ADD SWAP1 PUSH2 0xAD SWAP2 SWAP1 PUSH2 0x61F JUMP JUMPDEST PUSH2 0x2EA JUMP JUMPDEST PUSH1 0x40 MLOAD PUSH2 0xC1 SWAP4 SWAP3 SWAP2 SWAP1 PUSH2 0x65B JUMP JUMPDEST PUSH1 0x40 MLOAD DUP1 SWAP2 SUB SWAP1 RETURN JUMPDEST CALLVALUE DUP1 ISZERO PUSH2 0xD6 JUMPI PUSH1 0x0 DUP1 REVERT JUMPDEST POP PUSH2 0xF1 PUSH1 0x4 DUP1 CALLDATASIZE SUB DUP2 ADD SWAP1 PUSH2 0xEC SWAP2 SWAP1 PUSH2 0x6D0 JUMP JUMPDEST PUSH2 0x314 JUMP JUMPDEST STOP JUMPDEST CALLVALUE PUSH1 0x0 DUP1 CALLER PUSH20 0xFFFFFFFFFFFFFFFFFFFFFFFFFFFFFFFFFFFFFFFF AND PUSH20 0xFFFFFFFFFFFFFFFFFFFFFFFFFFFFFFFFFFFFFFFF AND DUP2 MSTORE PUSH1 0x20 ADD SWAP1 DUP2 MSTORE PUSH1 0x20 ADD PUSH1 0x0 KECCAK256 PUSH1 0x0 ADD PUSH1 0x0 DUP3 DUP3 SLOAD PUSH2 0x144 SWAP2 SWAP1 PUSH2 0x73F JUMP JUMPDEST SWAP3 POP POP DUP2 SWAP1 SSTORE POP PUSH1 0x0 PUSH1 0x40 MLOAD DUP1 PUSH1 0x40 ADD PUSH1 0x40 MSTORE DUP1 CALLVALUE DUP2 MSTORE PUSH1 0x20 ADD TIMESTAMP DUP2 MSTORE POP SWAP1 POP DUP1 PUSH1 0x0 DUP1 CALLER PUSH20 0xFFFFFFFFFFFFFFFFFFFFFFFFFFFFFFFFFFFFFFFF AND PUSH20 0xFFFFFFFFFFFFFFFFFFFFFFFFFFFFFFFFFFFFFFFF AND DUP2 MSTORE PUSH1 0x20 ADD SWAP1 DUP2 MSTORE PUSH1 0x20 ADD PUSH1 0x0 KECCAK256 PUSH1 0x2 ADD PUSH1 0x0 DUP1 PUSH1 0x0 CALLER PUSH20 0xFFFFFFFFFFFFFFFFFFFFFFFFFFFFFFFFFFFFFFFF AND PUSH20 0xFFFFFFFFFFFFFFFFFFFFFFFFFFFFFFFFFFFFFFFF AND DUP2 MSTORE PUSH1 0x20 ADD SWAP1 DUP2 MSTORE PUSH1 0x20 ADD PUSH1 0x0 KECCAK256 PUSH1 0x1 ADD SLOAD DUP2 MSTORE PUSH1 0x20 ADD SWAP1 DUP2 MSTORE PUSH1 0x20 ADD PUSH1 0x0 KECCAK256 PUSH1 0x0 DUP3 ADD MLOAD DUP2 PUSH1 0x0 ADD SSTORE PUSH1 0x20 DUP3 ADD MLOAD DUP2 PUSH1 0x1 ADD SSTORE SWAP1 POP POP PUSH1 0x0 DUP1 CALLER PUSH20 0xFFFFFFFFFFFFFFFFFFFFFFFFFFFFFFFFFFFFFFFF AND PUSH20 0xFFFFFFFFFFFFFFFFFFFFFFFFFFFFFFFFFFFFFFFF AND DUP2 MSTORE PUSH1 0x20 ADD SWAP1 DUP2 MSTORE PUSH1 0x20 ADD PUSH1 0x0 KECCAK256 PUSH1 0x1 ADD PUSH1 0x0 DUP2 SLOAD DUP1 SWAP3 SWAP2 SWAP1 PUSH2 0x261 SWAP1 PUSH2 0x795 JUMP JUMPDEST SWAP2 SWAP1 POP SSTORE POP POP JUMP JUMPDEST PUSH2 0x271 PUSH2 0x4D3 JUMP JUMPDEST PUSH1 0x0 DUP1 DUP5 PUSH20 0xFFFFFFFFFFFFFFFFFFFFFFFFFFFFFFFFFFFFFFFF AND PUSH20 0xFFFFFFFFFFFFFFFFFFFFFFFFFFFFFFFFFFFFFFFF AND DUP2 MSTORE PUSH1 0x20 ADD SWAP1 DUP2 MSTORE PUSH1 0x20 ADD PUSH1 0x0 KECCAK256 PUSH1 0x2 ADD PUSH1 0x0 DUP4 DUP2 MSTORE PUSH1 0x20 ADD SWAP1 DUP2 MSTORE PUSH1 0x20 ADD PUSH1 0x0 KECCAK256 PUSH1 0x40 MLOAD DUP1 PUSH1 0x40 ADD PUSH1 0x40 MSTORE SWAP1 DUP2 PUSH1 0x0 DUP3 ADD SLOAD DUP2 MSTORE PUSH1 0x20 ADD PUSH1 0x1 DUP3 ADD SLOAD DUP2 MSTORE POP POP SWAP1 POP SWAP3 SWAP2 POP POP JUMP JUMPDEST PUSH1 0x0 PUSH1 0x20 MSTORE DUP1 PUSH1 0x0 MSTORE PUSH1 0x40 PUSH1 0x0 KECCAK256 PUSH1 0x0 SWAP2 POP SWAP1 POP DUP1 PUSH1 0x0 ADD SLOAD SWAP1 DUP1 PUSH1 0x1 ADD SLOAD SWAP1 DUP1 PUSH1 0x3 ADD SLOAD SWAP1 POP DUP4 JUMP JUMPDEST DUP1 PUSH1 0x0 DUP1 CALLER PUSH20 0xFFFFFFFFFFFFFFFFFFFFFFFFFFFFFFFFFFFFFFFF AND PUSH20 0xFFFFFFFFFFFFFFFFFFFFFFFFFFFFFFFFFFFFFFFF AND DUP2 MSTORE PUSH1 0x20 ADD SWAP1 DUP2 MSTORE PUSH1 0x20 ADD PUSH1 0x0 KECCAK256 PUSH1 0x0 ADD PUSH1 0x0 DUP3 DUP3 SLOAD PUSH2 0x365 SWAP2 SWAP1 PUSH2 0x7DD JUMP JUMPDEST SWAP3 POP POP DUP2 SWAP1 SSTORE POP PUSH1 0x0 PUSH1 0x40 MLOAD DUP1 PUSH1 0x40 ADD PUSH1 0x40 MSTORE DUP1 DUP4 DUP2 MSTORE PUSH1 0x20 ADD TIMESTAMP DUP2 MSTORE POP SWAP1 POP DUP1 PUSH1 0x0 DUP1 CALLER PUSH20 0xFFFFFFFFFFFFFFFFFFFFFFFFFFFFFFFFFFFFFFFF AND PUSH20 0xFFFFFFFFFFFFFFFFFFFFFFFFFFFFFFFFFFFFFFFF AND DUP2 MSTORE PUSH1 0x20 ADD SWAP1 DUP2 MSTORE PUSH1 0x20 ADD PUSH1 0x0 KECCAK256 PUSH1 0x4 ADD PUSH1 0x0 DUP1 PUSH1 0x0 CALLER PUSH20 0xFFFFFFFFFFFFFFFFFFFFFFFFFFFFFFFFFFFFFFFF AND PUSH20 0xFFFFFFFFFFFFFFFFFFFFFFFFFFFFFFFFFFFFFFFF AND DUP2 MSTORE PUSH1 0x20 ADD SWAP1 DUP2 MSTORE PUSH1 0x20 ADD PUSH1 0x0 KECCAK256 PUSH1 0x3 ADD SLOAD DUP2 MSTORE PUSH1 0x20 ADD SWAP1 DUP2 MSTORE PUSH1 0x20 ADD PUSH1 0x0 KECCAK256 PUSH1 0x0 DUP3 ADD MLOAD DUP2 PUSH1 0x0 ADD SSTORE PUSH1 0x20 DUP3 ADD MLOAD DUP2 PUSH1 0x1 ADD SSTORE SWAP1 POP POP PUSH1 0x0 DUP1 CALLER PUSH20 0xFFFFFFFFFFFFFFFFFFFFFFFFFFFFFFFFFFFFFFFF AND PUSH20 0xFFFFFFFFFFFFFFFFFFFFFFFFFFFFFFFFFFFFFFFF AND DUP2 MSTORE PUSH1 0x20 ADD SWAP1 DUP2 MSTORE PUSH1 0x20 ADD PUSH1 0x0 KECCAK256 PUSH1 0x3 ADD PUSH1 0x0 DUP2 SLOAD DUP1 SWAP3 SWAP2 SWAP1 PUSH2 0x482 SWAP1 PUSH2 0x795 JUMP JUMPDEST SWAP2 SWAP1 POP SSTORE POP DUP3 PUSH20 0xFFFFFFFFFFFFFFFFFFFFFFFFFFFFFFFFFFFFFFFF AND PUSH2 0x8FC DUP4 SWAP1 DUP2 ISZERO MUL SWAP1 PUSH1 0x40 MLOAD PUSH1 0x0 PUSH1 0x40 MLOAD DUP1 DUP4 SUB DUP2 DUP6 DUP9 DUP9 CALL SWAP4 POP POP POP POP ISZERO DUP1 ISZERO PUSH2 0x4CD JUMPI RETURNDATASIZE PUSH1 0x0 DUP1 RETURNDATACOPY RETURNDATASIZE PUSH1 0x0 REVERT JUMPDEST POP POP POP POP JUMP JUMPDEST PUSH1 0x40 MLOAD DUP1 PUSH1 0x40 ADD PUSH1 0x40 MSTORE DUP1 PUSH1 0x0 DUP2 MSTORE PUSH1 0x20 ADD PUSH1 0x0 DUP2 MSTORE POP SWAP1 JUMP JUMPDEST PUSH1 0x0 DUP1 REVERT JUMPDEST PUSH1 0x0 PUSH20 0xFFFFFFFFFFFFFFFFFFFFFFFFFFFFFFFFFFFFFFFF DUP3 AND SWAP1 POP SWAP2 SWAP1 POP JUMP JUMPDEST PUSH1 0x0 PUSH2 0x51D DUP3 PUSH2 0x4F2 JUMP JUMPDEST SWAP1 POP SWAP2 SWAP1 POP JUMP JUMPDEST PUSH2 0x52D DUP2 PUSH2 0x512 JUMP JUMPDEST DUP2 EQ PUSH2 0x538 JUMPI PUSH1 0x0 DUP1 REVERT JUMPDEST POP JUMP JUMPDEST PUSH1 0x0 DUP2 CALLDATALOAD SWAP1 POP PUSH2 0x54A DUP2 PUSH2 0x524 JUMP JUMPDEST SWAP3 SWAP2 POP POP JUMP JUMPDEST PUSH1 0x0 DUP2 SWAP1 POP SWAP2 SWAP1 POP JUMP JUMPDEST PUSH2 0x563 DUP2 PUSH2 0x550 JUMP JUMPDEST DUP2 EQ PUSH2 0x56E JUMPI PUSH1 0x0 DUP1 REVERT JUMPDEST POP JUMP JUMPDEST PUSH1 0x0 DUP2 CALLDATALOAD SWAP1 POP PUSH2 0x580 DUP2 PUSH2 0x55A JUMP JUMPDEST SWAP3 SWAP2 POP POP JUMP JUMPDEST PUSH1 0x0 DUP1 PUSH1 0x40 DUP4 DUP6 SUB SLT ISZERO PUSH2 0x59D JUMPI PUSH2 0x59C PUSH2 0x4ED JUMP JUMPDEST JUMPDEST PUSH1 0x0 PUSH2 0x5AB DUP6 DUP3 DUP7 ADD PUSH2 0x53B JUMP JUMPDEST SWAP3 POP POP PUSH1 0x20 PUSH2 0x5BC DUP6 DUP3 DUP7 ADD PUSH2 0x571 JUMP JUMPDEST SWAP2 POP POP SWAP3 POP SWAP3 SWAP1 POP JUMP JUMPDEST PUSH2 0x5CF DUP2 PUSH2 0x550 JUMP JUMPDEST DUP3 MSTORE POP POP JUMP JUMPDEST PUSH1 0x40 DUP3 ADD PUSH1 0x0 DUP3 ADD MLOAD PUSH2 0x5EB PUSH1 0x0 DUP6 ADD DUP3 PUSH2 0x5C6 JUMP JUMPDEST POP PUSH1 0x20 DUP3 ADD MLOAD PUSH2 0x5FE PUSH1 0x20 DUP6 ADD DUP3 PUSH2 0x5C6 JUMP JUMPDEST POP POP POP POP JUMP JUMPDEST PUSH1 0x0 PUSH1 0x40 DUP3 ADD SWAP1 POP PUSH2 0x619 PUSH1 0x0 DUP4 ADD DUP5 PUSH2 0x5D5 JUMP JUMPDEST SWAP3 SWAP2 POP POP JUMP JUMPDEST PUSH1 0x0 PUSH1 0x20 DUP3 DUP5 SUB SLT ISZERO PUSH2 0x635 JUMPI PUSH2 0x634 PUSH2 0x4ED JUMP JUMPDEST JUMPDEST PUSH1 0x0 PUSH2 0x643 DUP5 DUP3 DUP6 ADD PUSH2 0x53B JUMP JUMPDEST SWAP2 POP POP SWAP3 SWAP2 POP POP JUMP JUMPDEST PUSH2 0x655 DUP2 PUSH2 0x550 JUMP JUMPDEST DUP3 MSTORE POP POP JUMP JUMPDEST PUSH1 0x0 PUSH1 0x60 DUP3 ADD SWAP1 POP PUSH2 0x670 PUSH1 0x0 DUP4 ADD DUP7 PUSH2 0x64C JUMP JUMPDEST PUSH2 0x67D PUSH1 0x20 DUP4 ADD DUP6 PUSH2 0x64C JUMP JUMPDEST PUSH2 0x68A PUSH1 0x40 DUP4 ADD DUP5 PUSH2 0x64C JUMP JUMPDEST SWAP5 SWAP4 POP POP POP POP JUMP JUMPDEST PUSH1 0x0 PUSH2 0x69D DUP3 PUSH2 0x4F2 JUMP JUMPDEST SWAP1 POP SWAP2 SWAP1 POP JUMP JUMPDEST PUSH2 0x6AD DUP2 PUSH2 0x692 JUMP JUMPDEST DUP2 EQ PUSH2 0x6B8 JUMPI PUSH1 0x0 DUP1 REVERT JUMPDEST POP JUMP JUMPDEST PUSH1 0x0 DUP2 CALLDATALOAD SWAP1 POP PUSH2 0x6CA DUP2 PUSH2 0x6A4 JUMP JUMPDEST SWAP3 SWAP2 POP POP JUMP JUMPDEST PUSH1 0x0 DUP1 PUSH1 0x40 DUP4 DUP6 SUB SLT ISZERO PUSH2 0x6E7 JUMPI PUSH2 0x6E6 PUSH2 0x4ED JUMP JUMPDEST JUMPDEST PUSH1 0x0 PUSH2 0x6F5 DUP6 DUP3 DUP7 ADD PUSH2 0x6BB JUMP JUMPDEST SWAP3 POP POP PUSH1 0x20 PUSH2 0x706 DUP6 DUP3 DUP7 ADD PUSH2 0x571 JUMP JUMPDEST SWAP2 POP POP SWAP3 POP SWAP3 SWAP1 POP JUMP JUMPDEST PUSH32 0x4E487B7100000000000000000000000000000000000000000000000000000000 PUSH1 0x0 MSTORE PUSH1 0x11 PUSH1 0x4 MSTORE PUSH1 0x24 PUSH1 0x0 REVERT JUMPDEST PUSH1 0x0 PUSH2 0x74A DUP3 PUSH2 0x550 JUMP JUMPDEST SWAP2 POP PUSH2 0x755 DUP4 PUSH2 0x550 JUMP JUMPDEST SWAP3 POP DUP3 PUSH32 0xFFFFFFFFFFFFFFFFFFFFFFFFFFFFFFFFFFFFFFFFFFFFFFFFFFFFFFFFFFFFFFFF SUB DUP3 GT ISZERO PUSH2 0x78A JUMPI PUSH2 0x789 PUSH2 0x710 JUMP JUMPDEST JUMPDEST DUP3 DUP3 ADD SWAP1 POP SWAP3 SWAP2 POP POP JUMP JUMPDEST PUSH1 0x0 PUSH2 0x7A0 DUP3 PUSH2 0x550 JUMP JUMPDEST SWAP2 POP PUSH32 0xFFFFFFFFFFFFFFFFFFFFFFFFFFFFFFFFFFFFFFFFFFFFFFFFFFFFFFFFFFFFFFFF DUP3 SUB PUSH2 0x7D2 JUMPI PUSH2 0x7D1 PUSH2 0x710 JUMP JUMPDEST JUMPDEST PUSH1 0x1 DUP3 ADD SWAP1 POP SWAP2 SWAP1 POP JUMP JUMPDEST PUSH1 0x0 PUSH2 0x7E8 DUP3 PUSH2 0x550 JUMP JUMPDEST SWAP2 POP PUSH2 0x7F3 DUP4 PUSH2 0x550 JUMP JUMPDEST SWAP3 POP DUP3 DUP3 LT ISZERO PUSH2 0x806 JUMPI PUSH2 0x805 PUSH2 0x710 JUMP JUMPDEST JUMPDEST DUP3 DUP3 SUB SWAP1 POP SWAP3 SWAP2 POP POP JUMP INVALID LOG2 PUSH5 0x6970667358 0x22 SLT KECCAK256 PUSH5 0x30D08BE33F 0x4D EXTCODESIZE 0x2F SWAP12 0xFC EXTCODEHASH AND MOD BYTE LOG1 EQ CALLDATASIZE INVALID JUMP PUSH2 0x47F0 XOR DUP8 PUSH32 0xEBF1A66C4CA264736F6C634300080F0033000000000000000000000000000000 "
				},
				"gasEstimates": {
					"creation": {
						"codeDepositCost": "423800",
						"executionCost": "461",
						"totalCost": "424261"
					},
					"external": {
						"balances(address)": "infinite",
						"depositMoney()": "infinite",
						"getDeposit(address,uint256)": "infinite",
						"withdrawMoney(address,uint256)": "infinite"
					}
				},
				"methodIdentifiers": {
					"balances(address)": "27e235e3",
					"depositMoney()": "16c05aa2",
					"getDeposit(address,uint256)": "2726b506",
					"withdrawMoney(address,uint256)": "f274c897"
				}
			},
			"storageLayout": {
				"storage": [
					{
						"astId": 28,
						"contract": "contracts/ExampleMappingStruct.sol:MappingStructExample",
						"label": "balances",
						"offset": 0,
						"slot": "0",
						"type": "t_mapping(t_address,t_struct(Balance)23_storage)"
					}
				],
				"types": {
					"t_address": {
						"encoding": "inplace",
						"label": "address",
						"numberOfBytes": "20"
					},
					"t_mapping(t_address,t_struct(Balance)23_storage)": {
						"encoding": "mapping",
						"key": "t_address",
						"label": "mapping(address => struct MappingStructExample.Balance)",
						"numberOfBytes": "32",
						"value": "t_struct(Balance)23_storage"
					},
					"t_mapping(t_uint256,t_struct(Transaction)6_storage)": {
						"encoding": "mapping",
						"key": "t_uint256",
						"label": "mapping(uint256 => struct MappingStructExample.Transaction)",
						"numberOfBytes": "32",
						"value": "t_struct(Transaction)6_storage"
					},
					"t_struct(Balance)23_storage": {
						"encoding": "inplace",
						"label": "struct MappingStructExample.Balance",
						"members": [
							{
								"astId": 8,
								"contract": "contracts/ExampleMappingStruct.sol:MappingStructExample",
								"label": "totalBalance",
								"offset": 0,
								"slot": "0",
								"type": "t_uint256"
							},
							{
								"astId": 10,
								"contract": "contracts/ExampleMappingStruct.sol:MappingStructExample",
								"label": "numDeposits",
								"offset": 0,
								"slot": "1",
								"type": "t_uint256"
							},
							{
								"astId": 15,
								"contract": "contracts/ExampleMappingStruct.sol:MappingStructExample",
								"label": "deposits",
								"offset": 0,
								"slot": "2",
								"type": "t_mapping(t_uint256,t_struct(Transaction)6_storage)"
							},
							{
								"astId": 17,
								"contract": "contracts/ExampleMappingStruct.sol:MappingStructExample",
								"label": "numWithdrawals",
								"offset": 0,
								"slot": "3",
								"type": "t_uint256"
							},
							{
								"astId": 22,
								"contract": "contracts/ExampleMappingStruct.sol:MappingStructExample",
								"label": "wihtdrawals",
								"offset": 0,
								"slot": "4",
								"type": "t_mapping(t_uint256,t_struct(Transaction)6_storage)"
							}
						],
						"numberOfBytes": "160"
					},
					"t_struct(Transaction)6_storage": {
						"encoding": "inplace",
						"label": "struct MappingStructExample.Transaction",
						"members": [
							{
								"astId": 3,
								"contract": "contracts/ExampleMappingStruct.sol:MappingStructExample",
								"label": "amount",
								"offset": 0,
								"slot": "0",
								"type": "t_uint256"
							},
							{
								"astId": 5,
								"contract": "contracts/ExampleMappingStruct.sol:MappingStructExample",
								"label": "timestamp",
								"offset": 0,
								"slot": "1",
								"type": "t_uint256"
							}
						],
						"numberOfBytes": "64"
					},
					"t_uint256": {
						"encoding": "inplace",
						"label": "uint256",
						"numberOfBytes": "32"
					}
				}
			},
			"userdoc": {
				"kind": "user",
				"methods": {},
				"version": 1
			}
		}
	}
}